:100000000EC028C0C4C626C03FC788C623C022C0B1
:1000100021C020C01FC01EC01DC01CC01BC0112499
:100020001FBECFE5D1E0DEBFCDBF10E0A0E6B0E05F
:10003000E8E4FFE002C005900D92A236B107D9F7BF
:1000400020E0A2E6B0E001C01D92A93BB207E1F7B3
:1000500049D678C7D5CF813011F482E001C081E064
:100060008093880008956F7146131BC040918500EE
:10007000222351F021E030E001C0220F8A95EAF7F7
:10008000242B20938500089521E030E0B90102C0BF
:10009000660F771F8A95E2F7CB01809584238093C2
:1000A000850008950F93962F9F71491327C0607C98
:1000B0004091880061110CC0222399F021E030E0CA
:1000C00001C0220F8A95EAF7242B2093880016C0DE
:1000D000603419F4013029F4EFCF603811F40230A4
:1000E00059F321E030E0B90102C0660F771F8A950D
:1000F000E2F7CB0180958423809388000F910895C7
:10010000EF92FF920F931F93CF93DF93C82FD62FB9
:10011000142F8DE7E82E80E0F82E262F4C2FF701C4
:10012000608180E0A0DF2D2F4C2FF701618181E0FD
:100130009ADF012F2D2F4C2FF701628180E0B2DF73
:100140002D2F4C2FF701638181E0ACDF2D2F4C2F39
:100150006091760082E0DF91CF911F910F91FF9027
:10016000EF9081CFDF92EF92FF920F931F93CF9387
:10017000DF93182FE62E042F813049F4C0917400CC
:10018000CC2309F456C084E0F82ED1E029C0823097
:1001900049F4C0917C00CC2309F44BC048E0F42E14
:1001A000D5E01EC0833049F4C0917700CC2309F418
:1001B00040C03CE0F32ED9E013C0843041F4C0913C
:1001C0008400CC23B1F124E1F22EDDE009C08530BA
:1001D00081F5C0918200CC2361F19CE1F92ED5E13B
:1001E00095D6882329F0013011F001E001C002E02A
:1001F000DD24D394FD1658F08C2F8D2129F0402F4B
:100200006D2D6E218D2F7CDFDD0CDF5FF3CF113084
:1002100081F48091740084FF0CC06E2D6071402FBA
:1002200080E0DF91CF911F910F91FF90EF90DF90D1
:1002300067CFDF91CF911F910F91FF90EF90DF90EB
:1002400008951F93CF93DF93811103C0C0917A006B
:1002500004C0813069F5C0917B00162FD82F8C2FF8
:100260008F70813061F48091850082FD05C080FD32
:1002700003C085D481110BC0C091780008C0C1FFB4
:1002800006C08091850082FF02C060E00CC0C2956C
:10029000CF70C11728F480E0DF91CF911F9130C655
:1002A00081E02ED661E08D2FDF91CF911F9118C68E
:1002B000DF91CF911F910895AF92BF92CF92DF92BD
:1002C000EF92FF920F931F93CF93DF938091620081
:1002D0008F5F803118F48093620002C01092620038
:1002E0009DE7C92E90E0D92EC0E0D0E0BB24B394A6
:1002F00001E010E0FC2EAC2EF6018281982F9F7158
:100300009F3109F040C0807C51F420918800C801E1
:100310000C2E01C0880F0A94EAF7822B32C02CD42D
:10032000E82EF4D5882341F0F2E0EF1619F082E0D0
:10033000E82E02C0EE24E394F60182814091880009
:1003400087FF0CC0F2E0EF1671F0980101C0220F98
:10035000AA94EAF72095842F822313C086FF13C046
:1003600081E0E81207C0C80101C0880FAA94EAF72B
:10037000842B07C0C80101C0880FAA94EAF78095B2
:10038000842380938800809188008B2131F48091B0
:10039000850082FD02C081FF05C0609162008F2D43
:1003A00050DF03C060E08F2D9BD5BB0C2196EFEF93
:1003B000CE1ADE0AC230D10509F09CCFDF91CF9171
:1003C0001F910F91FF90EF90DF90CF90BF90AF9073
:1003D000089590E0805090409BC58F3F910509F0B3
:1003E00008F4F7CF80E00895E199FECF90E08050C7
:1003F000904096C58530A8F440917400811103C0E7
:10040000842F80610BC0815021E030E0B90102C02F
:10041000660F771F8A95E2F7CB01842B80937400D7
:100420000895893080F4855021E030E0A90102C0B0
:10043000440F551F8A95E2F7CA0190917C00892BE1
:1004400080937C0008958D3080F4895021E030E065
:10045000B90102C0660F771F8A95E2F7CB01909130
:100460007700892B809377000895853180F48D5033
:1004700021E030E0A90102C0440F551F8A95E2F740
:10048000CA0190918400892B8093840008958D3156
:1004900078F4845121E030E0B90102C0660F771F83
:1004A0008A95E2F7CB0190918200892B809382009C
:1004B0000895EF92FF920F931F93CF93E199FECF90
:1004C00080E090E025D58F3F31F4CF911F910F91BF
:1004D000FF90EF903CC081E090E01AD580937500CA
:1004E00081E190E015D58093830082E190E010D502
:1004F0008093870083E190E00BD5809386008DE1A7
:1005000090E006D5809381008DE7E82E80E0F82EFC
:1005100008E710E0C1E28C2F5CDFF70181937F01D7
:100520008F7168DF8FE48C0F54DFF80181938F01A6
:10053000CF5FC53281F78DE290E0EAD480937600F8
:100540008F71CF911F910F91FF90EF9053CF63E088
:1005500081E04ADF61E087E047DF6DE088E044DF6B
:1005600060EC81E141DF60E082E13EDF60E083E159
:100570003BDF66E08DE138DF64E081E235DF6EE18C
:1005800082E232DF60E483E22FDF60E884E22CDF86
:1005900066E08DE229DF60E480E726DF61EF82E735
:1005A00023DF62EF83E720DF60E080E01DDF81CFA3
:1005B0000F931F93CF93DF938F3F910511F008F0B6
:1005C00065C0162FEC018F50823048F08FE090E02C
:1005D0009FD4082F80E190E09BD4081357C0C3310B
:1005E000D10509F43FC0A8F4C830D10579F140F431
:1005F000C130D10541F1C730D10509F447C03FC032
:10060000C131D10561F1C231D105C9F5109387001F
:1006100036C0C632D10548F4C132D10530F5CD31EE
:10062000D10569F5109381002AC0CD32D10511F1B1
:1006300030F1CE0180579109059708F5FE01E85F7A
:10064000FF4F10831CC01093750019C01D3011F0AE
:100650001830E1F4DF91CF911F910F9178CF109373
:1006600083000DC0109386000AC0FE01E45AFF4FBC
:10067000108302C010937600812F8F71BBDE612F33
:100680008C2FDF91CF911F910F91AECEDF91CF9143
:100690001F910F910895FF920F931F93CF93DF93B4
:1006A0008C01F62E862F8770C1E0D0E001C0CC0F00
:1006B0008A95EAF7C80191DEF3FE03C06C2F682B20
:1006C00003C0C0956C2F6823C801DF91CF911F91A3
:1006D0000F91FF906DCF88B38A6088BB81E08093D3
:1006E0008B0080936A000895109289001092A000F8
:1006F000089590918900983040F4E92FF0E0EF558B
:10070000FF4F80839F5F909389000895E1EAF0E0B6
:10071000A8E9B0E081918D9380E0E93AF807D1F73C
:10072000089581E08093A00008958091A00088231F
:1007300019F01092A00081E0089520919800909106
:100740008C006091990080919A0029135DC090916E
:100750008D00691359C090918E00891355C022FDF8
:100760001FC08091690090E00197880F991F880F42
:10077000991F322F3370830F911D019623FF04C000
:1007800017DF809165002DC028DE8093970080914F
:10079000970090918D0098133FC08091650030C004
:1007A000822F8770853041F48091650080FD34C0D0
:1007B00060936900816025C0843019F48DE190E078
:1007C00009C0863019F487E090E004C0873021F535
:1007D00088E090E023FF07C0EBDE8091650082FD9A
:1007E0001BC084600EC0F9DD809397008091970054
:1007F00090918D00981310C08091650081FD0CC010
:1008000082608093650067CF20938C0060938D0099
:1008100080938E0010926A00089520919800309184
:100820008C008091990060919A0090919B00231315
:100830002AC030918D00831326C030918E0063133F
:1008400022C030918F0093131EC090916A009111C5
:1008500024C0322F337090E0830F911D01962C70CD
:10086000283029F02C3069F02430B9F404C064FF3A
:1008700014C011DF07C0B1DD90918E0089130DC047
:1008800001C096DE28CF20938C0080938D0060936A
:100890008E0090938F0010926A000895660F6C711D
:1008A00019F410926300089581E080936300089525
:1008B000CF93DF9390918900809198009330E9F471
:1008C00081110EC090919900911117C090919A00DA
:1008D000911113C08EE180938A0010926500DAC0F6
:1008E0008F3F59F490919900911107C090919A000F
:1008F0009F3F19F410928A00CDC0209186002223D8
:1009000089F087FD0FC090919900907E903E51F044
:10091000882309F4BFC030E090E02817390709F0B8
:10092000B9C00AC087FDA2C09091810095FD9EC00C
:10093000909175008913AEC081E090E0EC01C8563B
:10094000DF4F6881262F207E203809F45CC038F400
:100950002034A9F1203699F1203259F09BC0203C77
:1009600009F460C0203E09F46BC0203A09F092C03F
:100970004FC06F716F3109F08DC09981892F8F77CA
:100980008093630020916100821313C08FEF8093E6
:100990006100109268008091810097FF04C080FF81
:1009A00004C082E003C080FFFCCF81E0809364003C
:1009B00071C08093610081E0809368006BC0FC018E
:1009C000EF55FF4F808190916000891317C09FEF12
:1009D00090936000109267009091810065FF04C0C1
:1009E00090FF04C092E003C090FFFCCF91E0909391
:1009F0006400682F8091640051DF05C0809360001F
:100A000081E08093670040916400688181E005C0C7
:100A10004091640064FF04C082E0DF91CF91A2CBDB
:100A200083E0FBCF6E3D29F440916400698184E04E
:100A3000F4CF6F3D79F540916400698185E0EDCF99
:100A400063FF28C02981862F837090E0982F882724
:100A5000820F911D62FF05C06A810196DF91CF91DF
:100A6000A7CD6A810196DF91CF9115CE982F907C0A
:100A7000903C81F49091810095FF0CC0909183008F
:100A8000891308C09091990080918700981302C043
:100A900082E053CFDF91CF91089580918900823019
:100AA00011F134DE80918A008823E1F08091980072
:100AB000982F90779037B1F49EE190938A009091AF
:100AC0008900933019F0943061F008958F3F41F41C
:100AD00080919900811104C080919A008F3F19F094
:100AE0002CCE9BCEE5CE089580918A00882319F004
:100AF000815080938A0080918B00882371F08F5FF2
:100B00008D3018F480938B0008C010928B0081E028
:100B100080936A0088B3857F88BB809168008823B2
:100B200051F08F5F80936800843628F08FEF8093B8
:100B300061001092680080916700882351F08F5FF8
:100B400080936700843628F08FEF809360001092C6
:100B5000670080916600882371F08F5F8093660044
:100B6000843648F08FEF80939400809395008093B3
:100B70009600109266000895809164000895809117
:100B800063000895CF939C012C5231092532310521
:100B900088F481E08093A9008091B4008F5F8093F6
:100BA000B400E091B500F0E0E555FF4F8081880F7B
:100BB0008F5F20C08A559109873C9D4420F5109293
:100BC000A9008091B4008E3060F081E08093B30082
:100BD0001092AB001092B5001092AA001092B400CF
:100BE0007FC01092B400E091B500F0E0E555FF4FF2
:100BF0008081880F808380916C008823A1F08150D0
:100C000080936C0010C080916C00883208F068C03E
:100C100091E0980F983219F090936C0061C0855F55
:100C200080936C005DC08091B5008F3F09F458C07F
:100C30008091B30081112FC08091A900813009F00B
:100C40004CC08091AA00811118C04EDDC0E0809197
:100C5000B500C81740F4EC2FF0E0E555FF4F808158
:100C600048DDCF5FF4CF5DDD8FEF8093B5008091DD
:100C70006B00882381F081500CC080916B0088321A
:100C800060F591E0980F983219F090936B0025C0B1
:100C9000855F80936B008091B3008F5F8093B3007A
:100CA0008930F1F48091B500811107C09091AB00BB
:100CB0009F3F19F49093B50013C0E82FF0E0E5557D
:100CC000FF4F2091AA00908192279093AA008F5FF6
:100CD0008093B5001092B30003C081E08093B3000D
:100CE000CF91089539D0F7D0ECD0E3DB78948AD057
:100CF000009709F047DF19DD8111CFDED8D08823B6
:100D0000B1F3F2DED9DA92D08091810082FFEFCF89
:100D100084D0882361F381D09ED9E9CF1F920F92AE
:100D20000FB60F9211248F939F939FB780917300FA
:100D30008F5F809373008F3F39F480917200883009
:100D400019F08F5F809372009FBF9F918F910F90DA
:100D50000FBE0F901F901895B898C0988BB78062FF
:100D60008BBFA89A1ABC82E083BF12BE89B782608B
:100D700089BF089512BE10927300089522B7809122
:100D8000730090E0982F8827820F911D08951F927D
:100D90000F920FB60F9211242F933F934F935F93AF
:100DA0006F937F938F939F93AF93BF93CF93EF9363
:100DB000FF93CFB780917200883020F081E080935C
:100DC00071000DC0B09B06C0D5DF1092B700109225
:100DD000B60005C0D3DF9093B7008093B600CFBFB5
:100DE000FF91EF91CF91BF91AF919F918F917F91A3
:100DF0006F915F914F913F912F910F900FBE0F9088
:100E00001F9018958091B6009091B700009721F03F
:100E10001092B7001092B600089580917200883049
:100E200018F080916F00089580E00895809170001F
:100E30008F5F80937000B09B08C0459B06C0909167
:100E40006E009F5F90936E0005C090916D009F5F54
:100E500090936D008F31B8F090916E0080916D008D
:100E6000891728F4981B9E3040F082E004C0891B4B
:100E70008A3018F081E080936F0010927000109219
:100E80006E0010926D0008951F920F920FB60F9290
:100E900011248F938091B800843018F48F5F809371
:100EA000B8008F910F900FBE0F901F9018958091F2
:100EB000B800843020F01092B80081E0089580E0FE
:100EC00008951CBC84E480BF89B78F7D89BF89B732
:100ED000846089BF089587B38A6187BBC3980895EA
:100EE000882321F0813059F480E101C088E098B373
:100EF000662311F0892B02C08095892388BB089551
:100F0000882311F0C19A0895C198089580E008954A
:100F1000E199FECF1FBA8EBBE09A99278DB3089551
:100F2000262FE199FECF1FBA8EBBE09A81500DB2F9
:100F3000021639F01CBA2DBB0FB6F894E29AE19A6A
:080F40000FBE0895F894FFCFE5
:020F4800FFFFA9
:00000001FF
