:1000000082C09CC050C89AC0D4C814C897C096C0BB
:1000100095C094C093C092C091C090C08FC0BAC325
:10002000E0C3DFC3DEC3DDC3DCC3DEC3B6C3D9C3F5
:10003000D8C3D7C3D6C3D5C3D4C3D3C3D2C3B3C322
:10004000B5C3B7C3CEC3CDC3CCC3CBC3CAC3C9C367
:10005000C8C3C7C3C6C3B0C3C4C3C3C3C2C3AFC38B
:10006000AEC3ADC3ACC3ABC3BCC3BBC3BAC3B9C3DC
:10007000B8C3B7C3B6C3ABC3B4C3B3C3B2C3B1C3CE
:10008000B0C3AFC3AEC3ADC3ACC3ABC3AAC3A9C3F4
:10009000A8C3A7C3A6C3A5C3A4C3A3C3A2C3A1C324
:1000A000A0C39FC39EC39DC39CC39BC39AC399C354
:1000B00098C397C396C395C394C393C392C391C384
:1000C00090C38FC38EC38DC38CC38BC38AC389C3B4
:1000D00088C387C386C385C384C383C382C381C3E4
:1000E00080C37FC37EC37DC37CC37BC37AC379C314
:1000F00078C377C376C375C374C373C36EC36DC34C
:100100006CC36BC36AC311241FBECFE5D1E0DEBF51
:10011000CDBF10E0A0E6B0E0E6E7F2E102C0059056
:100120000D92A236B107D9F720E0A2E6B0E001C0F7
:100130001D92A93BB207E1F761D79BC861CF81301F
:1001400021F482E080938800089581E08093880004
:1001500008956F71461320C0222379F021E030E02A
:10016000A90102C0440F551F8A95E2F7CA01909178
:100170008500892B80938500089521E030E0A90156
:1001800002C0440F551F8A95E2F7CA0180959091ED
:10019000850089238093850008950F93962F9F7182
:1001A000491338C0607C29F491E0211113C090E01C
:1001B00011C0603439F40130F1F491E021110AC02A
:1001C00090E008C06038B9F40230A9F491E0211140
:1001D00001C090E0992379F021E030E0A90102C04C
:1001E000440F551F8A95E2F7CA0190918800892B28
:1001F000809388000FC021E030E0A90102C0440FC5
:10020000551F8A95E2F7CA0180959091880089234D
:10021000809388000F910895EF92FF920F931F93A0
:10022000CF93DF93C82FD62F142F0F2EFDE7EF2E7D
:10023000F0E0FF2EF02D262F482FF701608180E09F
:1002400088DF2D2F4C2FF701618181E082DF012FA4
:100250002D2F4C2FF701628180E09FDF2D2F4C2F37
:10026000F701638181E099DF2D2F4C2F609176009B
:1002700082E06FDFDF91CF911F910F91FF90EF90A0
:100280000895DF92EF92FF920F931F93CF93DF9326
:10029000F82ED62EE42E81E0F81208C010917400DA
:1002A000112309F456C004E0C1E04FC082E0F81207
:1002B00008C010917C00112309F44BC008E0C5E090
:1002C00044C083E0F81208C010917700112309F4AC
:1002D00040C00CE0C9E039C084E0F81207C01091BA
:1002E00084001123B1F104E1CDE02FC085E0F812C4
:1002F00030C010918200112361F10CE1C5E125C0ED
:1003000081E0E81619F0EE24E39403C06894EE242B
:10031000E1F80C1768F0D1E0812F8D2329F04E2DE4
:100320006D2D6D238C2F78DFDD0FCF5F0C17A0F7BD
:1003300081E0F8120EC08091740084FF0AC06D2D18
:1003400060714E2D80E068DF04C077D78111D8CF6F
:10035000E2CFDF91CF911F910F91FF90EF90DF904F
:1003600008951F93CF93DF93811103C0D0917A003A
:1003700004C08130E1F5D0917B00162FC82F8D2F5E
:100380008F708130D9F48091850082FF05C0D091B3
:100390007800D295DF7021C080FF05C0D091780031
:1003A000D295DF701AC068D5882319F0D295DF7016
:1003B00014C0D0917800D295DF700FC0D1FF0BC070
:1003C0008091850082FF04C060E08C2F1ED70FC093
:1003D000D295DF7002C0D295DF70D11718F480E09B
:1003E00026D705C081E023D761E08C2F0ED7DF919F
:1003F000CF911F9108958F929F92AF92BF92CF920B
:10040000DF92EF92FF920F931F93CF93DF93809130
:1004100062008F5F803108F486C01092620085C050
:10042000EC2E9C2EF8018281982F9F719F3109F04C
:1004300055C0807C69F4C6010C2E02C0880F991F3C
:100440000A94E2F790918800892B8093880046C037
:1004500010D5882EF2D6882321F0F2E08F1274C0D6
:100460006EC0F80182818823E4F4F2E08F120CC0A0
:10047000C60102C0880F991F9A94E2F790918800F4
:10048000892B809388002AC0C60102C0880F991F5B
:100490009A94E2F780959091880089238093880050
:1004A0001DC086FF1BC081E088120CC0C60102C0BF
:1004B000880F991F9A94E2F790918800892B809376
:1004C00088000CC0C60102C0880F991F9A94E2F7F9
:1004D000809590918800892380938800809188007E
:1004E0008F2129F0609162008E2D3BDF13C0809137
:1004F000850082FF05C0609162008E2D32DF0AC048
:1005000081FF05C0609162008E2D2BDF03C060E08B
:100510008E2D7BD6FF0C21960F5F1F4FC230D10569
:1005200009F07ECF1CC0809362000DE710E0C0E0B0
:10053000D0E0FF24F394CC24C394D12C71CFF801E4
:100540008281882334F4A0CFF8018281882324F4A7
:100550008FCF86FDABCFC2CF86FDB4CFBFCFDF91AB
:10056000CF911F910F91FF90EF90DF90CF90BF90B0
:10057000AF909F908F90089590E0805090405FD60C
:1005800008958F3F910509F010F4F6DF089580E09B
:100590000895E199FECF90E08050904058D608959C
:1005A0008530C0F4811106C0809174008061809311
:1005B00074000895815021E030E0A90102C0440F89
:1005C000551F8A95E2F7CA0190917400892B809398
:1005D00074000895893080F4855021E030E0A9014D
:1005E00002C0440F551F8A95E2F7CA0190917C0022
:1005F000892B80937C0008958D3080F4895021E010
:1006000030E0A90102C0440F551F8A95E2F7CA01E4
:1006100090917700892B809377000895853180F43D
:100620008D5021E030E0A90102C0440F551F8A958A
:10063000E2F7CA0190918400892B80938400089589
:100640008D3178F4845121E030E0A90102C0440FDB
:10065000551F8A95E2F7CA0190918200892B8093F9
:1006600082000895EF92FF920F931F93CF93E19929
:10067000FECF80E081DF8F3F11F43AD033C081E0BC
:100680007BDF8093750081E177DF8093830082E1D7
:1006900073DF8093870083E16FDF809386008DE1B5
:1006A0006BDF809381000F2EFDE7EF2EF0E0FF2E31
:1006B000F02D08E710E0C1E28C2F5EDFF701819397
:1006C0007F018F716DDF8FE48C0F56DFF80181930E
:1006D0008F01CF5FC63281F78DE24EDF80937600C7
:1006E0008F715EDFCF911F910F91FF90EF90089572
:1006F00063E081E04EDF61E087E04BDF6DE088E0A2
:1007000048DF60EC81E145DF60E082E142DF60E0EC
:1007100083E13FDF66E08DE13CDF64E081E239DFC9
:100720006EE182E236DF60E483E233DF60E884E298
:1007300030DF66E08DE22DDF60E480E72ADF61EFE5
:1007400082E727DF62EF83E724DF60E080E021DFDC
:1007500089DF08950F931F93CF93DF938F3F910508
:1007600011F008F041C0C62F8C0181EF800F82305C
:1007700038F08FE001DFD82F80E1FEDED81334C0DF
:10078000C8019927FC013197E437F10550F5E15F85
:10079000FF4F0994C093750024C0CD3011F0C830CC
:1007A00019F5A6DF21C0C09383001BC0C09387004A
:1007B00018C0C093860015C0C093810012C0FC0110
:1007C000E45AFF4FC0838C2F8F71EADE0AC0C093BA
:1007D00076008C2F8F71E4DE04C0FC01E85FFF4FD0
:1007E000C0836C2F802FD5DEDF91CF911F910F91A9
:1007F0000895FF920F931F93CF93DF938C01F62EF2
:10080000862F8770C1E0D0E002C0CC0FDD1F8A9533
:10081000E2F7C801B6DEF3FE03C06C2F682B03C0FD
:10082000C0956C2F6823C80195DFDF91CF911F9190
:100830000F91FF90089588B38A6088BB81E0809310
:100840008B0080936A000895109289001092A00096
:10085000089590918900983040F4E92FF0E0EF5529
:10086000FF4F80839F5F909389000895E1EAF0E055
:10087000A8E9B0E029EA30E081918D93E217F3070F
:10088000D9F7089581E08093A00008958091A00099
:10089000882319F01092A00081E0089590919800AB
:1008A00080918C009813B4C06091990080918D0064
:1008B0006813AEC020919A0080918E002813A8C0C2
:1008C00092FD2BC02091690030E021503109220FA8
:1008D000331F220F331F892F8370280F311D2F5F85
:1008E0003F4F93FF09C0C90135DF809165008460E7
:1008F00080936500A0DF0895C90143DE80939700CF
:100900008091970090918D00981390C08091650020
:100910008260809365008FDF0895892F877085300E
:1009200059F48091650080FD81C060936900816009
:100930008093650080DF0895843011F593FF0CC02B
:100940008DE190E007DF8091650082FD6FC08460DB
:100950008093650070DF08958DE190E012DE809352
:1009600097008091970090918D0098135FC08091BF
:10097000650081FD5BC08260809365005CDF089547
:10098000863011F593FF0CC087E090E0E3DE8091A4
:10099000650082FD4BC08460809365004CDF089544
:1009A00087E090E0EEDD8093970080919700909132
:1009B0008D0098133BC08091650081FD37C0826037
:1009C0008093650038DF0895873081F593FF0CC070
:1009D00088E090E0BFDE8091650082FD27C08460E2
:1009E0008093650028DF089588E090E0CADD809359
:1009F00097008091970090918D00981317C0809177
:100A0000650081FD13C082608093650014DF089546
:100A1000ECE8F0E09083A8E9B0E011968C91119792
:100A2000818312968C91828310926A00089590912E
:100A3000980080918C00981337C020919900809184
:100A40008D00281331C060919A0080918E00681348
:100A50002BC030919B0080918F00381325C080916E
:100A60006A00811133C0892F837030E0280F311D57
:100A70002F5F3F4F9C70983029F09C3089F0943064
:100A800029F506C064FF22C0C901B3DED4DE089593
:100A9000C90177DD90918E00891318C0CCDE0895CE
:100AA000C90158DEC8DE0895ECE8F0E09083A8E9BB
:100AB000B0E011968C911197818312968C911297C8
:100AC000828313968C91838310926A0008956F70CD
:100AD000660F19F4109263000895623019F41092B1
:100AE0006300089581E0809363000895CF93DF93BE
:100AF000809189008330F9F48091980081110EC0B3
:100B00008091990081112CC180919A00811128C196
:100B10008EE180938A00109265002DC18F3F59F4B9
:100B200080919900811107C080919A008F3F19F43C
:100B300010928A0020C120918600222309F402C16C
:100B40008091980088230CF413C190919900907EB5
:100B5000903E09F0F4C009C130E08F7790E028178B
:100B6000390709F008C11FC09091810095FDF0C0C0
:100B7000909175009813FFC0C1E016C0982F907C2B
:100B8000903C09F0F8C09091810095FFF4C09091DD
:100B900083009813F0C0909199008091870098137A
:100BA000EAC0C2E001C0C1E0D0E0FE01E856FF4F5C
:100BB0006081862F807E803809F478C048F48034C4
:100BC00009F444C0803609F441C0803259F0D3C0E2
:100BD000803C09F47FC0803E09F491C0803A09F05E
:100BE000CAC06CC06F716F3109F0C5C0C856DF4F05
:100BF0009981892F8F778093630020916100821300
:100C00001FC08FEF8093610010926800992364F4F5
:100C10008091810080FF04C082E080936400ABC0BB
:100C200081E080936400A7C08091810080FF04C0B0
:100C300081E0809364009FC082E0809364009BC049
:100C40008093610081E08093680095C0FE01EF55BC
:100C5000FF4F808190916000891323C09FEF909394
:100C600060001092670065FF0CC09091810090FFBA
:100C700004C092E0909364000FC091E090936400F0
:100C80000BC09091810090FF04C091E090936400AC
:100C900003C092E090936400682F8091640017DF96
:100CA00005C08093600081E080936700C856DF4FE5
:100CB00040916400688181E0E4DA5DC064FF05C0B2
:100CC0004091640082E0DDDA56C04091640083E028
:100CD000D8DA51C06E3D41F4C856DF4F40916400F0
:100CE000698184E0CEDA47C06F3D09F044C0C85640
:100CF000DF4F40916400698185E0C3DA3CC063FF47
:100D00003AC062FF0EC0C856DF4F6370862F90E076
:100D1000982F88272981820F911D6A8101961ADDFB
:100D20002AC0C856DF4F6370862F90E0982F88271F
:100D30002981820F911D6A8101965BDD1CC08111A2
:100D40000BCF19C08091980088230CF00DCF16CFDF
:100D5000982F907C903C79F41ACF80919800F5CE32
:100D600020918600222371F3F8CF80919800FCCE69
:100D70008091980003CFDF91CF91089580918900F1
:100D8000823079F173DD80918A00882349F1809166
:100D90009800982F9077903719F59EE190938A00EC
:100DA00090918900933019F09430C1F00895811129
:100DB00009C08091990081110FC080919A00811122
:100DC0000BC008958F3F41F480919900811104C0B8
:100DD00080919A008F3F29F061DD089528DE089503
:100DE00085DE089580918A00882319F081508093D0
:100DF0008A0080918B00882371F08F5F8D3018F40A
:100E000080938B0008C010928B0081E080936A0071
:100E100088B3857F88BB80916800882351F08F5FFD
:100E200080936800843628F08FEF809361001092E1
:100E3000680080916700882351F08F5F809367007E
:100E4000843628F08FEF80936000109267008091C5
:100E50006600882369F08F5F80936600843640F0D7
:100E6000E4E9F0E08FEF8083818382831092660053
:100E70000895809164000895809163000895CF9350
:100E80009C012C52310925323105C8F481E0809350
:100E9000A9008091B4008F5F8093B400E091B50009
:100EA000F0E0E555FF4F8081880F8F5F8083809150
:100EB0006C008823E9F1815080936C0039C08A5519
:100EC0009109873C9D4420F51092A9008091B400BF
:100ED0008E3060F081E08093B3001092AB001092EE
:100EE000B5001092AA001092B40086C01092B4000F
:100EF000E091B500F0E0E555FF4F8081880F8083D9
:100F000080916C008823A1F0815080936C0010C008
:100F100080916C00883208F06FC091E0980F983291
:100F200019F090936C0068C0855F80936C0064C07A
:100F30008091B5008F3F09F45FC08091B3008111AB
:100F400035C08091A900813009F053C08091AA007A
:100F500081111DC079DC8091B500882361F0C0E06B
:100F6000EC2FF0E0E555FF4F808173DCCF5F80917F
:100F7000B500C817A8F386DC8FEF8093B500809189
:100F80006B00882399F0815080936B000FC0809193
:100F90006B00883270F591E0980F983219F09093B9
:100FA0006B0027C0855F80936B0023C08091B300E6
:100FB0008F5F8093B3008930F9F48091B50081117F
:100FC00008C09091AB009F3F21F48FEF8093B50054
:100FD00013C0E82FF0E0E555FF4F2091AA00908163
:100FE00092279093AA008F5F8093B5001092B30070
:100FF00003C081E08093B300CF91089539D000D130
:10100000F5D030DB78948BD0009709F038DF3EDCE8
:101010008111B4DEE1D08823B1F3E4DEECD993D0C2
:101020008091810082FFEFCF85D0882361F382D049
:1010300086D8E9CF1F920F920FB60F9211248F938B
:101040009F939FB7809173008F5F809373008F3F52
:1010500039F480917200883019F08F5F80937200AC
:101060009FBF9F918F910F900FBE0F901F9018956B
:10107000B898C0988BB780628BBFA89A1ABC82E0E0
:1010800083BF12BE89B7826089BF089512BE1092D5
:101090007300089522B78091730090E0982F8827FD
:1010A000820F911D08951F920F920FB60F92112477
:1010B0002F933F934F935F936F937F938F939F9360
:1010C000AF93BF93CF93EF93FF93CFB7809172000D
:1010D000883028F081E080937100CFBF0EC0B09BB4
:1010E00006C0D4DF1092B7001092B60005C0D2DF60
:1010F0009093B7008093B600CFBFFF91EF91CF914F
:10110000BF91AF919F918F917F916F915F914F911F
:101110003F912F910F900FBE0F901F9018958091C7
:10112000B6009091B700009721F01092B70010928E
:10113000B600089580917200883018F080916F0099
:10114000089580E00895809170008F5F8093700013
:10115000B09B0EC0459B06C090916E009F5F909320
:101160006E000BC090916D009F5F90936D0005C065
:1011700090916D009F5F90936D008F31C8F09091BA
:101180006E0080916D00891738F4981B9E3050F0E6
:1011900082E080936F0006C0891B8A3018F081E0DE
:1011A00080936F001092700010926E0010926D008C
:1011B00008951F920F920FB60F9211248F93809172
:1011C000B800843018F48F5F8093B8008F910F902F
:1011D0000FBE0F901F9018958091B800843020F0BA
:1011E0001092B80081E0089580E008951CBC84E46A
:1011F00080BF89B78F7D89BF89B7846089BF089513
:1012000087B38A6187BBC3980895882321F0813012
:1012100069F480E101C088E0662321F098B3892B4E
:1012200088BB089598B38095892388BB0895882347
:1012300011F0C19A0895C198089580E00895E19948
:10124000FECF1FBA8EBBE09A99278DB30895262F43
:10125000E199FECF1FBA8EBBE09A81500DB2021603
:1012600039F01CBA2DBB0FB6F894E29AE19A0FBE82
:061270000895F894FFCF81
:02127600FFFF78
:00000001FF
